:02000002D0002C
:1040000000400D0084D50D00000006000D000501E4
:0840100004017E050000000020
:04401800A8C70D0028
:1040200009480A49884208B505D0094A824202D0A7
:10403000121A07F0DCF90748074A0021121A07F0A4
:10404000E1F9014808BD00BF1CDB0320B0D30D001F
:10405000C8DC0320C8DC0320F0E7032070B504F0BF
:1040600033FF074C074BE41AA40800251E46A5425F
:1040700004D056F8253098470135F8E770BD00BFE9
:10408000ACD30D0024D30D0000F0CABF08B500F07A
:104090007BFEBDE8084004F0E5BE03F09BBE03F0E4
:1040A000A1BE03F09FBE0078B0FA80F040097047CF
:1040B000012303707047000010B5054A054C1368D2
:1040C00001331360208805F019FF0028FAD010BDD5
:1040D00068E1032020DB03207FB502460846137900
:1040E000956833B13DB90C4904B0BDE8704005F0A6
:1040F000E3B90A4B00E00A4B167B0A4C0A49527B93
:104100000292012E08BF214601910095074A002125
:1041100005F014FA04B070BDEDC70D00DBCB0D0047
:10412000DCC70D00E5C70D00E9C70D0003C80D0091
:1041300010B50D4C0D49204605F0BEF94FF4FA704C
:1041400004F06EFE0A49204605F0B6F94FF4FA7005
:1041500004F066FE2046074905F0AEF94FF4FA7008
:10416000BDE8104004F05CBE80E10320C8DB032002
:1041700068DB03202CDB03202DE9F04FBB4FBC4C48
:10418000396885B049B9BB4A42F20F731380BA4A05
:1041900023801380B94A1380A2E30129B84D66D168
:1041A000B84B2888DFF8ECB2DFF8C8A24FF48C7265
:1041B0001A6005F08AFE42F2107004F031FE4FF0F2
:1041C0000909BBF80000DFF8A882AA4E05F0A9FE95
:1041D000238818442080642004F022FEAA4B18880B
:1041E00005F09FFEBAF800301844AAF800004FF41A
:1041F000617004F015FEB9F10109E2D1B8F80030A0
:1042000032880A21B3FBF1F3B3F51B7FB2FBF1F265
:10421000A8F80030328007D213B942F20F7301E0E0
:104220004FF41B73A8F800304FF49663009340F6E8
:104230001C4200234FF41B712088DFF8548204F0E5
:10424000E3FD4FF4767380B2A8F8000020804FF4AD
:104250001B713088009340F61C42002304F0D4FD0B
:10426000002130802888A8F8001005F02EFE3B6859
:10427000022B61D101212888DFF818B2DFF8F8A1FC
:1042800005F023FE4FF4FA7004F0CAFD4FF0050963
:10429000BBF80000DFF8D881774E05F042FE238896
:1042A00018442080642004F0BBFD784B188805F08A
:1042B00038FEBAF800301844AAF80000642004F070
:1042C000AFFDB9F10109E3D1B8F80030328805211A
:1042D000B3FBF1F3B3F51B7FB2FBF1F2A8F80030AA
:1042E000328007D213B942F20F7301E04FF41B730F
:1042F000A8F8003040F28B43009340F61C420023A4
:104300004FF41B712088DFF8888104F07DFD8C2339
:1043100080B2A8F8000020804FF41B713088009311
:1043200040F61C42202304F06FFD002130802888D5
:10433000A8F8001005F0C9FD3B68032B39D1012115
:104340002888DFF8509105F0C0FD4FF4FA7004F0B2
:1043500067FD4FF00508B9F80000454E05F0E1FD96
:10436000238818442080642004F05AFDB8F1010825
:10437000F1D133880522B3FBF2F3B3F51B7F05D2ED
:1043800013B942F20F7301E04FF41B7333804FF403
:104390007A7300934FF41B710023208840F61C426F
:1043A00004F032FD3A4B208000212888198005F066
:1043B0008CFD3B68042B39D101212888DFF8D4908B
:1043C00005F083FD4FF47A7004F02AFD4FF00508E4
:1043D000B9F80000264E05F0A4FD2388184420807B
:1043E000642004F01DFDB8F10108F1D133880522E5
:1043F000B3FBF2F3B3F51B7F05D213B942F20F738F
:1044000001E04FF41B7333804FF4AF6300934FF41C
:104410001B710023208840F61C4204F0F5FC1C4B65
:10442000208000212888198005F04FFD3B68052B6E
:1044300065D1144B2888DFF85C80DFF834904FF4A6
:10444000917201211A6005F040FD41F2883004F0BC
:10445000E7FCB8F8000005F064FD6526208023889D
:10446000632B19D900232380082625E008E30320C5
:10447000D4E20320FCE20320C0E20320D0E20320C8
:10448000A8DB032064DB0320A4DB032008DC03207B
:10449000F0E2032028DB0320642004F0C1FCB8F81C
:1044A000000005F03EFDA9F800004FF4FA7004F09A
:1044B000B7FC013ED3D1D5E7B8F80000DFF89492FD
:1044C00005F02FFD238818442080642004F0A8FC08
:1044D000013EF1D1B9F80000C008A9F800004FF47E
:1044E000F6633146009640F6581204F08DFC8E4B70
:1044F000A9F80000314628881E8005F0E6FC3B68DC
:10450000062B40F0DA80894B2888DFF84C92DFF8E0
:1045100044824FF4917201211A6005F0D6FC41F2F9
:10452000883004F07DFCB9F8000005F0FAFC65263F
:1045300020802388632B03D90023238008260FE0E3
:10454000642004F06DFCB9F8000005F0EAFCA8F85E
:1045500000004FF4FA7004F063FC013EE9D1EBE790
:10456000B9F80000DFF8EC8105F0DBFC2388184483
:104570002080642004F054FC013EF1D1B8F8000022
:10458000DFF8A4A1DFF8D491C008A8F800004FF428
:10459000F66340F658123146009604F035FC4FF4AD
:1045A000F06340F65812AAF80060B8F800000093D3
:1045B0003146334604F028FC5D4B80B20121AAF855
:1045C0000000A8F80000188805F07FFC642004F0C3
:1045D00027FC584B188805F0A4FC574B188040F670
:1045E000E44340F6FF7200933146334680B204F054
:1045F0000BFCAAF8000080B206F012FA00224F4B22
:1046000006F09EFB00224E4B06F0BCF84D4B9FED92
:104610004E7AC3E90001B8F8003007EE903AF8EEA0
:10462000677ACDE90201C7EE876A16EE900A06F0B6
:1046300009FA35A3D3E9002306F058FA34A3D3E9E5
:104640000023C9E90001DDE9020106F09DF841EC13
:10465000100B05F061FF30A3D3E9002351EC100BE0
:1046600006F044FA0022394B06F040FAD9E900235B
:1046700006F03CFA2AA3D3E9002306F061FB0022EE
:10468000334BC9E9000106F031FA06F0DFFC4FF4C4
:10469000F663A8F800001A463146009680B204F08E
:1046A000B3FB0022A8F80000002331462888AAF8AE
:1046B0000060C9E9002305F008FC3B68072B64D1C2
:1046C00001212888DFF8908005F0FFFB4FF4FA7095
:1046D00004F0A6FB0527B8F800001E4E05F021FCEB
:1046E000238818442080642004F09AFB013FF2D113
:1046F00033880522B3FBF2F3B3F51B7F32D27BBBC9
:1047000042F20F732EE000BF90BE49D3A0680E3F67
:104710006666666666127140CDCCCCCCCC0C34405B
:10472000FD87F4DBD781D33FF0E2032064DB032075
:10473000C4DB032024DB0320D0E20320000024405C
:104740000000494000E3032000404E400000E03FED
:1047500000005940D4E2032028DB0320B8E2032004
:104760004FF41B73338040F28B4300934FF41B7163
:104770000023208840F61C4204F046FB5C4B20805E
:1047800000212888198005F0A0FBDFF8A481594E8C
:10479000B8F80000584F012105F097FB642004F0A1
:1047A0003FFB564B188805F0BCFB40F6E4433080D5
:1047B0000093002340F6FF72194680B204F024FBF8
:1047C0004B4B188080B206F02BF900224C4B06F0C0
:1047D000B7FA00224B4B05F0D5FF00224A4B06F0FA
:1047E00085F90022494B06F0ABFA0022484B05F050
:1047F000CBFFC7E9000106F029FC002130802888A2
:10480000444D05F062FB0021B8F8000005F05DFBA7
:10481000414804F0BFFB414BFDEEC07AC3ED007A86
:1048200017EE900A06F0FCF82FA3D3E9002306F058
:104830005DF906F00BFC80B20022002313282880CB
:10484000C7E900230AD8364B188805F06AFB804672
:1048500006F0E6F8C7E90001A5F80080314A1188A2
:1048600040F2DC53994288BF42F20F73218888BF1F
:10487000138040F6B833994288BF2B4B128884BF0F
:1048800042F20F711980294B1988962984BF42F290
:104890000F7119803188962982BF164942F20F7034
:1048A0000880288840F2DC51884282BF194942F2D0
:1048B0000F70088040F2DC518A4210D8208840F600
:1048C000B83290420BD81B88962B08D83388962B89
:1048D00005D82B888B428CBF0921002100E00921DB
:1048E000084605B0BDE8F08F9A99999999990D40BD
:1048F000F0E20320D0E2032000E3032024DB0320C6
:104900000000244000004940000022400000144004
:104910000000404074E103205CE10320D0DC032070
:10492000A0DB0320FCE20320D4E20320C0E203204A
:10493000C4DB032010B504F085FD114B114C584326
:10494000206004F075FD22680F4B03FB00202060FF
:1049500004F080FD2268A0F5FA6342F2107000FBBB
:104960000320206004F046FD2268642303FB00203E
:10497000206004F049FD23681844206010BD00BF8A
:1049800000E1F505F8E2032040420F0000B589B0D0
:10499000D8B92E4A2E4B12881B6806922D4A2E49F2
:1049A000128805922D4A2E48128804922D4A1288A8
:1049B00003922D4A128802922C4A12880192009387
:1049C0002B4A2C4B12681B683AE001281BD11F4A66
:1049D0001F4B12881B6806921E4A1F4912880592B7
:1049E0001E4A2548128804921E4A128803921E4AC3
:1049F000128802921D4A1288019200931C4A1D4B94
:104A000012681B681CE002281CD1104A104B128847
:104A10001B6806920F4A1049128805920F4A1748E0
:104A2000128804920F4A128803920F4A1288029247
:104A30000E4A1288019200930D4A0E4B12681B68B1
:104A400003F0E0F909B05DF804FB00BFC0E2032009
:104A5000C4E20320D2E2032021C80D0074E1032048
:104A6000C8DB0320D4E20320D0E20320FCE20320D1
:104A70001CDB0320F8E2032068DB03202CDB03208F
:104A800020B9114B1870114B186004E0012802BFC7
:104A90000D4B00221A700E4A002313600D4A13605A
:104AA0000D4A13800D4A13800D4A13800D4A13805E
:104AB0000D4A13800D4A13800D4A00200021C2E9DF
:104AC00000010C4A13807047FEE2032070E10320CE
:104AD00068E10320C4E20320D4E20320FCE20320C7
:104AE000C0E20320D0E20320D2E2032074E10320DD
:104AF00000E30320F0E2032030B585B005467E498F
:104B0000684604F0C4F86946284604F04BF90446A8
:104B1000684604F075F8E4B1092304222946684682
:104B200004F04AF96946284604F0FBF8684604F0A8
:104B300067F82868714C06F041FB002800F3C2803A
:104B4000286806F03BFB42F20F73984240F3BA80AC
:104B5000C3E06B49684604F09AF86946284604F0B9
:104B600021F90446684604F04BF8002C33D00623A4
:104B700004222946684604F01FF96946284604F0D5
:104B8000D0F8684604F03CF8286806F017FB0446A5
:104B900028682CB906F012FB5A4B18605A4B0BE0F0
:104BA00006F00CFB0128044640F0A180286806F0BE
:104BB00005FB544B1860554B554D1A68554BA86072
:104BC0001A6005F017F914222946534B187802F0A1
:104BD00063FF20468DE05149684604F058F8694665
:104BE000284604F0DFF80446684604F009F874B378
:104BF000062304222946684604F0DEF86946284662
:104C000004F08FF8684603F0FBFF286806F0D6FA38
:104C10000428044609D13E4DB9EE000A04F0EAFA30
:104C20002C6105F0E7F822460EE0286806F0C6FA87
:104C3000052804465BD1364DB9EE040A04F0DAFAD1
:104C40002C6105F0D7F8042205F11001BDE73449C5
:104C5000284604F07FF818B12046FFF711FFB8E7A7
:104C60003049684604F013F86946284604F09AF87B
:104C70000446684603F0C4FF002C38D00723042202
:104C80002946684604F098F86946284604F049F831
:104C9000684603F0B5FF286806F090FA002826DB86
:104CA000286806F08BFA632821DC2868184D1E4C12
:104CB00006F084FAE860206005F09CF8042205F113
:104CC0000C010EE02868124D06F078FA686020604A
:104CD00005F090F81422294603E042F2AC63236009
:104CE00005E00D4B187802F0D7FE206801E04FF088
:104CF000FF3005B030BD00BF51C80D001CDB0320E4
:104D000055C80D00D8E20320C0DB032064DB03207C
:104D1000DCE2032000DC0320CDDC032059C80D00B9
:104D20005DC80D0061C80D0008E3032008B548B94F
:104D30000849094804F0C0FB4FF4FA70BDE8084088
:104D400004F06EB8022803D1BDE80840FFF7F0B9BF
:104D500008BD00BF2CDB032080E1032038B50468C8
:104D600005467CB16368013B63605BB923682046FC
:104D70009B689847A368013BA3601BB92368204642
:104D8000DB689847284638BD2DE9F043884E8948AE
:104D9000894CDFF880928BB000F05FFB04F01CFAC6
:104DA0003268864B012A18609846226803D0844BEB
:104DB0001B68012B0FD1834B1968D9F80030ADF86F
:104DC00014300AAB022003F8160D01920122029161
:104DD000009205A90FE07C4B1968D9F80030ADF8B6
:104DE00016300AAB022003F8150D01920122029140
:104DF00000920DF1160108A804F048FF734B744DA2
:104E00001F787FB901221A7039463A4608A80897D8
:104E100002F0FAFD089B1E2B04D103232B700823FC
:104E20006F80AB802868AB88069006A8ADF81C3070
:104E300004F052FF0546002800F0B780012828D171
:104E400006A804F04BFFD9F80030984240F0AD803E
:104E5000604B35601A68013204BF00221A605E4B55
:104E60001A685E4B1A6004F0B7F95D4BD8F8001071
:104E700018602368504A0B44181A0028206001DC8F
:104E8000012304E0574B1B68984240F38E80136067
:104E90008BE0022840F08980FFF76EF9FFF74AFDAA
:104EA0003368514F012B03D0454B1B68012B61D157
:104EB0004C4E3878474DFFF769FD336823602B6807
:104EC0002BB94A4B1A884A4B1A6001232B603B7856
:104ED000022B48D1474F484A3B7848498DF800306B
:104EE00008A83C2303F00AFD09A8FFF737FF3B7829
:104EF000434A44498DF8003008A83C2303F0FEFCE7
:104F000009A8FFF72BFF3B783F4A40498DF8003056
:104F100008A83C2303F0F2FC09A8FFF71FFFFFF7E6
:104F200007F92B68002BC2BF2A4A013313602B6894
:104F3000082B16DD2D4B1A882D4B1B689B1A083346
:104F4000102B0ED8234B4FF0FF3200201A60FFF7D2
:104F500097FD1B4B1B68012B16BF2D4B33681B683D
:104F60002360012003E0204A013313706320FFF720
:104F700087FD1AE0002628463E70FFF707FD1D4B0F
:104F8000214A1B7821498DF8003008A83C2303F002
:104F9000B5FC09A8FFF7E2FE3046FFF771FD304689
:104FA000FFF7C4FE1A4B1B6823600BB0BDE8F0830B
:104FB00070E1032078E1032000DC0320C8E2032035
:104FC000D8E203206CE1032064E10320CCDC032061
:104FD000BCE5032004DC032068E10320C4E20320D5
:104FE000F4E2032064DB0320FEE20320D4E203208A
:104FF000CCE20320D4DC0320C8DB032065C80D000D
:1050000068DB03206CC80D002CDB032073C80D0087
:10501000C0DB032020DB03200023042202F0FCBDC0
:10502000F0B55E495E485F4C5F4D89B0FFF7F4FF15
:105030005E495F48FFF7F0FF5E495F48FFF7ECFF0E
:10504000002302225D495E4802F0E6FD00230222B1
:105050005C495D4802F0E0FD002302225B495C48A8
:1050600002F0DAFD002302225A495B4802F0D4FD27
:105070005A495B48FFF7D0FF5A4800F0E3F95A4815
:1050800000231A460121406802F026FE04F030FB9E
:1050900004F0E6FB03F012FA4FF4964103F002FA33
:1050A000524B0021188804F0FFFE514B0121188853
:1050B00004F0FAFE4F4B0021188804F0F5FE4E4B29
:1050C0000021188804F0F0FE4C4B0021188804F0F1
:1050D000EBFE4B4B0121188804F0E6FE02212088EC
:1050E00004F0E2FE002320884649009302224FF09C
:1050F000FF3303F0D7FF444A4449454803F0DDFA43
:1051000004F0A0F90A2842DC04F09CF902283EDDF4
:10511000254C404F04F06EFE14222146387802F0F0
:10512000B3FC2B78012B13D03B4D0FCD03AE0FC634
:1051300003AE0FCED5F800E025460FC5C5F800E058
:1051400004F058FE14222146387802F0A5FC10E045
:105150001C4B62681A601D4BA2681A601D4BE26806
:105160001A6023695B4200EE103AB8EEC00A04F000
:1051700041F82A4803F00EFF104B2948BDEEC00A43
:1051800083ED000A09B0BDE8F04003F049BEB9EE76
:10519000000A04F02FF804232B61B9E72CDB03206D
:1051A0007AC80D0020DB0320DCE2032068DB03204B
:1051B00087C80D00C8DB032094C80D00D0DC032095
:1051C000A1C80D001CDB0320ACC80D00D8E20320F1
:1051D000B4C80D0008E30320BEC80D00ACDB0320FB
:1051E000C6C80D0078E1032024E3032028DB032058
:1051F000A8DB0320A4DB032008DC032024DB03203E
:10520000C4DB0320B9400D00CFC80D00F94A0D00E2
:105210008F860D00CDDC0320C8C70D005CE10320A4
:10522000C0D401002DE9F043294B2A4C2A4FDFF866
:10523000D090DFF8D08000251D60284B01261E602D
:10524000274B85B01E7002F077FC2946204603F0FC
:1052500061FE3A4623492046234C04F079FE64233C
:1052600084F86034214BC4F86C34E57184F83C5404
:1052700084F83D5484F86A54C4F8785484F87C5413
:1052800084F87D54C4F8708484F87464484600F04F
:105290005BF83A461649484604F05AFE8DF8045029
:1052A0008DF80D50134D144B029321466B46052289
:1052B0002846CDF800808DF80C6002F011F83A46CF
:1052C0000E49284604F044FE05B0BDE8F08300BF57
:1052D00064E103205CE10320C8DC03206CE10320CF
:1052E000D4DC0320338F0D00D8DC032008E6032034
:1052F00009530D0080E1032080F0FA020D740D00C7
:1053000078E10320C4C70D00704710B5082104469A
:1053100004F023FE204610BD0EB400B58CB00DAADB
:10532000202352F8041B03928DE8060004930168C1
:10533000002304AA1E20059302F066FC0CB05DF861
:1053400004EB03B070470000024A02600022427181
:10535000704700BFE0C80D002DE9F04743798AB0DF
:10536000002B62D0051D284601F034FE002840D1F4
:1053700004F018F8002858D004F035F82C4B2D49CB
:105380001B680446024606A803F0DAFF069A2A497B
:105390002A48FFF7C1FF06A803F032FC204603F0BD
:1053A00013FF8046204603F005FF8146204603F0A8
:1053B000F9FE8246204603F0DDFE0646204603F055
:1053C000E1FE0746204603F0E5FEFFB2C0B2F6B2AA
:1053D00002901FFA88F1019700965FFA8AF35FFA4C
:1053E00089F206A801F0CAFD06A9284601F013FEBD
:1053F0001BE003F0D7FFC0B904A801F089FE04A8A0
:1054000001F0D0FD03F012FF03F0EDFF084B094956
:105410001B68024606A803F093FF0848069A08494D
:10542000FFF77AFF06A803F0EBFB0AB0BDE8F087B0
:105430000CDC032078E50320E8C80D008CE5032090
:1054400002C90D0010B50446043001F0DAFE6071A7
:105450002046BDE81040FFF77FBFFFF77DBF02F099
:105460006BBB02F069BB0000014B01221A70704750
:105470000CE30320011D006802F09CBE10B5044639
:105480000175006802F078FE207D012104F00CFD1A
:10549000207D0121BDE8104004F017BD006802F036
:1054A00070BEFF21006802F0F5BE000037B5084B62
:1054B00000930025074C0068257013460A462946CC
:1054C00002F0EEFE2378002BFCD0002003B030BDAC
:1054D00069540D000CE30320006802F0DBBE0000FD
:1054E00037B5074B00930025064C0068257013461E
:1054F0002A4602F0D5FE2378002BFCD003B030BD45
:1055000069540D000CE3032002F016BB02F014BB3B
:1055100002F012BB70B50E4C0E46154602F08CFA26
:105520002368C01A0B4B984208D902F08DFA0A4B37
:10553000186002F081FB02F07FFA206002F084FA2A
:1055400080B2801BA842D4BF0020012070BD00BFE4
:1055500010E30320A086010004E6032038B5057A95
:1055600004464DB94068FFF785FF63682946187DFA
:1055700004F0ABFC0123237238BD10B5037A044656
:105580006BB143680121187D04F09FFCFF21606826
:10559000FFF7A2FF6068FFF781FF0023237210BDB1
:1055A000F8B504460D46164602F04EFA87B260681A
:1055B000FFF777FFFF28607209D14FF47A723946FE
:1055C0002046FFF7A7FF0028F1D055230BE0FE2867
:1055D00001D0502307E0324629466068FFF766FF96
:1055E000607230B1602320462370FFF7C6FF0020B1
:1055F000F8BD6068FFF755FF6068FFF752FF0120B4
:10560000F8BD70B504460E4602F01EFA85B2324669
:1056100029462046FFF77EFF30B96068FFF741FF5B
:10562000FF28F4D1012070BD002070BDF7B5037ACA
:10563000019204460D460BB9FFF790FF25B14FF4D8
:1056400096712046FFF7DDFF45F040016068FFF7E7
:1056500043FF0DF107060DF1030716F80119606805
:10566000FFF73AFFBE42F8D1002D0CBF95218721EC
:105670006068FFF731FF6068FFF713FF0B25606874
:10568000FFF70FFF0306607203D5013D15F0FF051C
:10569000F5D103B0F0BD70B504460D46164637216E
:1056A0000022FFF7C3FF324629462046BDE870407E
:1056B000FFF7BCBF2DE9F04100250572057085722A
:1056C0004160044690461E4602F0BEF94146074638
:1056D0006068FFF7D3FE63684F4A1D724FF0010800
:1056E000DA605D7483F810802046FFF737FF636847
:1056F0004146187D04F0E9FB0A25FF216068013D61
:10570000FFF7EAFE15F0FF05F7D163682946187D1B
:1057100004F0DBFB0A25002211462046FFF786FF36
:105720000128804612D0013D15F0FF0501D120234C
:1057300057E0FD216068FFF7CFFE4FF40278606804
:10574000FFF7AFFEB8F10108F9D1E4E74FF4D572E5
:1057500008212046FFF76AFF052802D184F80A8055
:105760000FE004256068FFF79CFE013D15F0FF0582
:105770006072F7D1AA2802D10223A37201E0252387
:105780002FE0A37A022B0CBF4FF080450025BFB25B
:105790002A4629212046FFF77EFF024648B14FF4F2
:1057A000FA6239462046FFF7B5FE0028F0D04323C1
:1057B00017E0A37A022B0ED02046FFF7DEFE6368C7
:1057C000B0683479317B727B5A74D8601C7219745A
:1057D0000120BDE8F0813A212046FFF727FF38B1CC
:1057E000372320462370FFF7C8FE0020BDE8F08174
:1057F0006068FFF756FE00F0C000C02804BF032316
:10580000A3726068FFF74DFE6068FFF74AFE6068AC
:10581000FFF747FED0E700BF90D0030038B5837A8A
:10582000032B18BF490215460A4611210446FFF70B
:10583000FDFE10B1302323700BE029464FF40072B7
:105840002046FFF7ADFE054618B12046FFF795FE4E
:1058500003E02046FFF791FE0025284638BD10B52D
:10586000837A032B0A4618BF4A0212210446FFF727
:10587000DDFE30B1312320462370FFF77EFE00208D
:1058800010BD012010BD10B500220C210446FFF709
:10589000CDFE30B1282320462370FFF76EFE002096
:1058A00010BD2046FFF769FE012010BDF8B5054682
:1058B00016461F46FFF7D3FF98B10024A3B29F42BC
:1058C00006EB442108D94FF400722846FFF768FE22
:1058D00001340028F2D104E02846BDE8F840FFF783
:1058E000D2BF0020F8BD38B5044615464068FFF722
:1058F000F3FD4FF4007229466068FFF7F1FDFF21C8
:105900006068FFF7E9FDFF216068FFF7E5FD60686B
:10591000FFF7C7FD607200F01F00052806D057236F
:1059200020462370FFF729FE002038BD012038BD36
:1059300070B5837A032B18BF490215460A46182111
:105940000446FFF773FE064608B132231DE02A46DF
:10595000FE212046FFF7C7FFC0B14FF4FA61204691
:10596000FFF74FFE054608B95A230EE032460D21D7
:105970002046FFF75BFE38B96068FFF792FD18B963
:105980002046FFF7FAFD05E0292323702046FFF7A4
:10599000F4FD0025284670BD38B50D464FF4FA6178
:1059A0000446FFF72EFE10B95B23237005E02A465C
:1059B000FC212046FFF797FF18B92046FFF7DDFDD1
:1059C000002038BD10B5837A032B0A4618BF4A025F
:1059D00019210446FFF72AFE30B1332320462370F5
:1059E000FFF7CBFD002010BD012010BD38B54FF4EE
:1059F000FA610446FFF705FE054620B1FD21606807
:105A0000FFF76AFD01E0562323702046FFF7B5FD3E
:105A1000284638BDF8B5054616461F46FFF7D2FFA3
:105A200070B10024BC4206EB4421284604D0FFF7A5
:105A3000B3FF28B10134F5E7BDE8F840FFF7D6BF62
:105A40002846FFF79AFD0020F8BD02F075B802F075
:105A500073B802F071B870B50378DA0704461ED542
:105A60004368816800F10C0632461868FFF760FF52
:105A7000054608B9002513E023789B0704D4237852
:105A800023F0010323700BE06368A06819693246B4
:105A900001441868FFF74CFF0028F0D1EAE7012520
:105AA000284670BD70B583688B4204460E46154685
:105AB00014D0FFF7D0FF08B9002070BD6B0703D5E5
:105AC00000232370A66009E0636804F10C023146EC
:105AD0001868FFF7A3FE0028F2D1EDE723782046EF
:105AE00005F003051D4300F80C5B70BD10B50446BE
:105AF0002430FFF7B0FF28B104F50C70BDE810406A
:105B0000FFF7A9BF10BD8379406902399940084465
:105B10007047012970B505460C46164602D84FF06D
:105B2000FF3070BDC3699942F9D8C379202B10D1D9
:105B30008169022201EBD41100F50C70FFF7B2FF6E
:105B40000028ECD004F07F0450F8243023F0704398
:105B50000FE0102BE3D18369C1F30721022219441E
:105B600000F50C70FFF79EFF0028D8D0E4B230F8A3
:105B70001430EA6993429ABF33600120002070BD5F
:105B8000012938B50C46154601D8002038BDC36937
:105B90009942FAD8C379202B0ED18169032201EBF7
:105BA000D41100F50C70FFF77DFF0028EDD004F054
:105BB0007F0440F824500FE0102BE6D18369C1F335
:105BC00007210322194400F50C70FFF76BFF002832
:105BD000DBD0E4B220F81450012038BD2DE9F341A8
:105BE000C4688C4205460E46904607D20C460027F4
:105BF000EB6901349C4203D9CFB9EC680127F7E780
:105C0000A64214D001AA21462846FFF782FF0028A9
:105C10000DDBEDD0019B002BEAD107B1EC606FF0FA
:105C2000704221462846FFF7ABFF074608B9002718
:105C30000BE016B9C8F8004007E022463146284676
:105C4000FFF79EFF0028F5D1F1E7384602B0BDE826
:105C5000F08173B505460C4601AA21462846FFF798
:105C600058FF061E01DA00200FE0002221462846D8
:105C7000FFF786FF0028F6D0EB689C429CBF04F13A
:105C8000FF34EC60019C002EE6D102B070BD70B50F
:105C9000012304460022C3604FF0FF33C2710D465A
:105CA000A06280F82420C362C4F8340280F8302255
:105CB000C0F83832A1B104295DD811462430FFF76D
:105CC000F1FE002857D000EB051393F8AE315B06C8
:105CD00051D11B3500EB0515D5F80650002D4AD0E3
:105CE0000022294604F12400FFF7DCFE002842D000
:105CF000B0F80B30B3F5007F3DD1037C022B3AD1D5
:105D0000C389002B37D0417B21714B1E6371002367
:105D1000A371092601238B4207D0013E2BD0A27923
:105D20005B000132DBB2A271F5E7C28A02B9426AB6
:105D30002261C6892E44A661B0F81130238106EB9A
:105D400042012162B0F81120520102F2FF1201EB70
:105D500062226261B0F8133003B9036AAD1A2B44B2
:105D6000A57923FA05F56B1CE36140F6F4739D42B7
:105D700003D80C23E371002070BD4FF6F4739D42ED
:105D800085BFC36A236210232023E371012070BD05
:105D900001F0D2BE01F0D0BE70B505460C460846F3
:105DA00049B106F0A1F82B68024621462846DB6877
:105DB000BDE87040184770BD01F0BEBE8378016930
:105DC00043F00403837000F110028068FFF706BF00
:105DD0002DE9F041037803F02003044603F0FF05AA
:105DE0000BB100262EE04269184B9A42F9D8FFF712
:105DF000E5FF06460028F4D02169A068FFF783FE7E
:105E00000746A068052239462430FFF74BFE80463E
:105E10000028E6D029464FF4007205F0F3FA012578
:105E2000A3681A79AA4209D94246E9191868FFF706
:105E30007FFD0028D5D00135EDB2F1E7636903EBB2
:105E4000422363613046BDE8F08100BFFFFD1F00C3
:105E500010B5044680680A462430A169FFF722FE87
:105E600020B1A38803F00F0300EB431010BDF0B581
:105E70000024451E082623462E2715F8012F202A28
:105E800018D0082C02BFCF545A1CD3B22A78A2F1E2
:105E9000410E08BF1026BEF1190F06D890F80CE08D
:105EA00016EA0E0F1CBF2032D2B203F1010ECA5403
:105EB0005FFA8EF301340B2CDFD10022CA5418464E
:105EC000F0BD70B5047805460E4684B924222146FB
:105ED00005F098FAAE60F379102B03D0202B06D191
:105EE000402300E0202301202B70A87070BD00200B
:105EF00070BD2DE9F74F03780446894615464BB12E
:105F00008278D10706D50CE05A462169FFF701FED9
:105F100000283DDA637843F0020363704FF0FF30EE
:105F200097E01A0703D5E36962699B1A07E09A06AE
:105F300008D5A3681A896369C3EB42139BB29D42DB
:105F400028BF1D462E464FF0000804F1100B002E0E
:105F500035D022786369A06812F0200FC3F3080AD5
:105F60004FEA532102D0036A19441DE090F80580DE
:105F700001EA0808BAF1000F10D1B8F1000F0DD1F5
:105F8000002BC1D153064CBF036A236A236105E08D
:105F900004D1237813F0700F11D1BBE72169A068F9
:105FA000FFF7B1FD08EB0001A068BAF1000F35D191
:105FB000B6F5007F32D3C36A994202D12EE0A81B06
:105FC00047E0B6F5806F1BD3227897064FEA562A32
:105FD00006D40279C8EB0202D2B2924528BF92469B
:105FE00099424FEA4A2707D2A06853464A460068BA
:105FF000FFF75CFC60B98DE75344994221D3F3E786
:106000004A460068FFF70AFC002883D04FF4007767
:1060100063693B44B9446361F61B98E7002224306E
:10602000FFF740FD00283FF475AFCAF50077B7428F
:1060300028BF374600EB0A013A46484605F0D7F933
:10604000E6E724300191FFF706FD01990028CBD146
:1060500060E703B0BDE8F08F37B54369C3F343157C
:10606000044605B169B901220DF107012046FFF789
:1060700040FF40B2012801D0002008E063691F33CF
:1060800000E02033A0686361303000EB451003B0BE
:1060900030BD2DE9F0410E4601780769044600291C
:1060A00039D04569B5423AD00EB9066131E00B07E7
:1060B00003D5C3699E422ED807E0880605D5A3689C
:1060C0001B89B6EB431F26D823E0D4F808E09EF8DE
:1060D00006306A1E03F10900731EC240C3409A4293
:1060E00000D84DB94A064CBFDEF82020226A226152
:1060F0001D4604F110080AE09B1AF9E7424621699F
:10610000A068FFF706FD002805F1FF3503DD002D2F
:10611000F4D1666103E027610020BDE8F081012031
:10612000BDE8F081F8B50F4615460021242204464B
:106130001E4605F067F9B868A06005F00F02A5805B
:1061400000F1300152013B6AE3601144CB7A1D0734
:106150004CD4831893F83B3003F017032370C97AAB
:1061600011F0180F04BF43F0080323709DF8183096
:10617000E37006F00303012B09D0022B05D0002B9E
:1061800034D1710532D4012302E0032300E002235D
:10619000A370A1788B0703D5237813F0110F25D1B5
:1061A0004BB216F4005F06F0080114BF6FF07F07D2
:1061B000002719433943A170C36AA36102447505DE
:1061C000B2F84410B2F84A3043EA014104D581B133
:1061D000FFF73FFD68B909E02162D36CE361730406
:1061E0000CD5E1692046FFF754FF38B90020207034
:1061F000F8BDA37843F00403A370F0E70120F8BDD5
:106200002DE9F743037806460D46174653BB0B7836
:1062100013F0700F26D04C6914F01F0422D1A04651
:1062200000212846D5F81490FFF716FFD0B1037867
:10623000C3B12E2B01D10024F2E7E52BFBD0C17AAC
:1062400011F0080F05D17CB100F073FA804509D137
:106250000AE00F29EFD15906E2D503F01F0490F8A8
:106260000D80DDE7002007E000943B46C9F34F12A4
:1062700029463046FFF756FF03B0BDE8F083000023
:1062800038B5037804460BB9012038BD83785A0726
:1062900023D50121FFF7DCFD054628B9637843F0DB
:1062A00001036370002038BD0378E52BF6D0237816
:1062B0001B0744BFE369C361238C4383638C8382E0
:1062C000094B1B682BB100F11601183098472B8B36
:1062D0006B82A37823F00403A370A068FFF706FC89
:1062E0000028DBD0D0E700BF18E3032010B5044638
:1062F000FFF7C6FF0023237010BDF0B593B01F4613
:1063000000238DF824308DF825300378019206465D
:106310000C460BB100203DE00B7813F0700FF9D064
:1063200013782F2B12D1019B1A782F2A02D1013317
:106330000193F8E7A1681AB93046FFF7C2FD29E0DA
:1063400009A8FFF7BEFD0028E4D009AC01AA03A903
:10635000019800F08DFA0028DCD0019B1B789BB1DE
:10636000002303AA2146304600F026FC0028D1D0A5
:1063700035460FCD09AC0FC40FCD0FC42B68236079
:106380003046FFF7B3FFE0E73B4603AA214630461D
:1063900000F012FC13B0F0BD00B58BB000238DF8F7
:1063A00004308DF805300A460123014601A8FFF7A5
:1063B000A4FF10B101A800F047FB0BB05DF804FB8F
:1063C0002DE9F0410B7813F0700F88B004460F46AA
:1063D0001CD040F6022300F0EFFBB8B101261025D7
:1063E000A67025702046FFF7F3FC78B1236923627D
:1063F00000212046FFF74DFE2046FFF741FF28B160
:1064000031462046FFF724FD034608B9002051E03D
:10641000C57202466E4600F1200C6D461068516848
:10642000B646AEE80300083262457646F6D1B3F8C8
:1064300014805E8B2E238DF8003020210023EA1873
:1064400001330A2B5170FAD1216AA068FFF75BFB78
:10645000A3680146012203F12400FFF723FB034652
:106460000028D3D0ADF81A60ADF81480AE460646C9
:106470000DF1200C724603CA624530607160964689
:1064800006F10806F6D12E228DF801203A6AADF801
:106490001A20110CADF81410203308AE2A4603CA96
:1064A000B24218605960154603F10803F6D1A0689E
:1064B000FFF71CFB08B0BDE8F081F0B593B01F46B4
:1064C00000238DF824308DF825300378019206469C
:1064D0000C46002B3ED10B7813F0700F3AD0137896
:1064E0002F2B0CD1019B1A782F2A02D10133019353
:1064F000F8E7A16809A8FFF7E4FC58B309AC01AAC2
:1065000003A9019800F0B4F920B3019B1B78DBB11B
:10651000002303AA2146304600F04EFB58B1354611
:106520000FCD09AC0FC40FCD0FC42B6823603046CC
:10653000FFF7DCFEE2E76FB103AA21463046FFF722
:106540003FFF0028EBD105E003AA21463046FFF7C4
:1065500037FF00E0002013B0F0BD00002DE9F04748
:106560000378894619070446904608D583789A0728
:1065700005D51B070BD5E169FFF78BFD38B96378AB
:1065800043F0010363704FF0FF30BDE8F0876369AB
:10659000DB439845F3D846464FF0000A6369002E66
:1065A00000F08180A068427912EA5325C3F30807FE
:1065B0001CD1DFB9216971B104F11002FFF7A9FA0A
:1065C0000028DCDB40F08E802046FFF7F7FB002838
:1065D00040F08880D3E7236A3BB92046FFF7EEFB03
:1065E0000028CCD02369236200E023612169A068E0
:1065F000FFF789FA291817B9B6F5007F21D2C7F538
:106600000075B54228BF354637B96369E2699342E0
:1066100034BF0122052200E00122A0682430FFF7E8
:1066200041FA0028ABD038442A4649462F4404F0AA
:10663000DEFEB7F5007F30D1A0682430FFF70BFAFB
:1066400017E0B6F5806FA06815D30279521B730A64
:10665000D2B2934228BF1346C26A91424FEA432501
:1066600002D31A44914237D3A7684A463868FFF7E5
:10667000D1F990B983E7C36A994202BF4FF0FF3363
:1066800080F824A0C362A3684A461868FFF750F94F
:1066900000283FF474AF4FF4007563692B446361C5
:1066A000A944761B7AE7E269934201D9E36102E0EB
:1066B0000F4B1B681BB1A37843F00403A37094F93C
:1066C0000230002B02DB4046BDE8F0872046FFF792
:1066D000D7FD0028F7D152E74FF0FF3280F824A011
:1066E000C262C1E72169A068FFF70DFA014683E79E
:1066F00018E3032001F020BA10B50C46017809B95F
:10670000002010BD11F0600104D02F23237000235E
:10671000637006E0FFF79CFB0028F1D02146FFF7ED
:10672000A6FB012010BD01F007BA01F005BA01F087
:1067300003BA411E00F10A020020430843EAC010D8
:1067400011F8013F53FA80F08A42C0B2F5D1704788
:1067500038B5CB6804460D4623B98968BDE8384092
:10676000FFF7AFBB2422002104F04CFE10230120D0
:106770002370A070AB68A360EB68236238BD2DE97D
:10678000F0438BB00378002580460E4617468DF8FF
:1067900004508DF8055063B10C2A0AD90EE0414629
:1067A00001A8FFF7D5FF20B1012498F80330A342D8
:1067B0000BD24FF0000986F8009055E0C378002B0B
:1067C000EDD1FFF799FF81464EE0B8F80410091BA0
:1067D000490101A8FFF75DFC81460028E9D00021AE
:1067E00001A8FFF739FC0028E3D0C37A0F2BE0D1D2
:1067F000037803F01F039C42DBD1631E0D225A4332
:1068000006EB020E0023042BD9B204D800EB43019F
:10681000B1F801100BE00A2995BF03F1FF31591CB3
:1068200000EB410100EB410194BFC988898861B147
:10683000974210D97E2994BFC9B23F210EF80310A8
:1068400001330D2B02F10102DDD1974203D9037808
:10685000590648BFB554F31903F8015C03785B0689
:1068600002D40134E4B2A0E748460BB0BDE8F0839F
:106870002DE9F0470378202B00F1010401D12046D7
:10688000F8E7704F886005462C1A2E4615F8013B34
:106890000BB32F2B01D1031917E05C2B02D1002081
:1068A000BDE8F087A3F12204E4B21D2C03D827FA37
:1068B00004F4E407F3D403F0BF043C2CEFD0203BF6
:1068C0005E2BE1D9EBE72F2D05D11E4613F8015BB6
:1068D000202DF8D1F9E7166003199842C0EB0308A0
:1068E00009D013F8012D2E2AF7D0202AF5D0B8F1BF
:1068F000FF0FD4DC01E04FF00008C1F8048001F183
:106900000C0301F11702202403F8014F9342FBD13D
:1069100003461A1A13F8014B2E2CFAD0202CF8D06B
:10692000B2FA82F4640908F1FF36731C07D100271C
:106930004FF0070E3D46BA464FF0080909E0835D67
:106940002E2BF4D0013EF0E7835C202B04D10024F1
:1069500001324245F8DB4BE02E2B02D1B242F6D198
:1069600003E0222B17D07C2B15D0A3F12A0CBCF10D
:10697000050F01D82D2B0ED1A3F13A0CBCF1050F58
:1069800009D9A3F15B0CBCF1020F04D9A3F1210CCE
:10699000BCF15D0F02D9B2420ED149E0B24247D0FC
:1069A000754521D8A3F1610CBCF1190F08D8203B23
:1069B000DBB249EA07070AE0754515D800245F23D2
:1069C000A3F1410CBCF1190F98BF49EA0A0A05F17D
:1069D000010C5FFA8CFC0D44BCF1060F6B7301D8FF
:1069E00081F80CC06546B3E7BEF10A0F17D1002449
:1069F0004B7B202B3FF453AF3CB11AEA070F18BF73
:106A000002270F700120BDE8F0870B7B0120087082
:106A100019447E234B7331238B73BDE8F087B24258
:106A2000E5DC32464FF00A0E08254FF010098EE7DC
:106A3000BEF10A0FDBD032464FF00A0E08254FF0A8
:106A4000100985E701010031F0B58BB000238DF806
:106A500004308DF8053003781907044608D583788B
:106A60009A0705D5016A29B1A068FFF7F2F808B9BD
:106A7000002049E001212046FFF7EAF905460028F9
:106A8000F6D0FFF756FEE5262E700023074623704A
:106A9000A068FFF72BF80028EAD0E378002B33D06A
:106AA000214601A8FFF754FE0028E1D00125E37834
:106AB000AB42DDD3A188491B490101A8FFF7E9FAE0
:106AC0000028D5D0002101A8FFF7C6FA0028CFD0B2
:106AD000C37A0F2BCCD1027802F01F039D42C7D19D
:106AE000437BBB42C4D10670A16891F8243043F0C7
:106AF000010381F82430530603D5A068FEF7F6FFA2
:106B000002E00135EDB2D2E70BB0F0BD2DE9F8435C
:106B100091F80C9006460D4602247E2701F10D08DF
:106B20006968AA6863189BB21144914206D012F8B2
:106B3000010B03EB431343409BB2F6E7B9F1030F9C
:106B400028BF4FF0030909F10402D2B203F00F018C
:106B5000A818013A0929D2B294BF30313731914592
:106B600041734FEA1313F1D305EB090300215F735F
:106B70003046FFF78EFA01213046FFF76DFA0146E5
:106B800028B97078B0FA80F04009BDE8F88303783E
:106B90004BB1C37A1B07EED40B22404604F018FC1D
:106BA0000028E8D102E00120BDE8F8830134A4B256
:106BB000642CB5D1BDE8F8832DE9F04F9B460B78E6
:106BC00089B013F0700F05900E46914601D1002058
:106BD000A0E1059B1B78002BF9D153680293137831
:106BE0009B0700F08D81029B0D270C33B3FBF7F759
:106BF0000137FFB200213046FFF74BFA4FF0000893
:106C000009F10D02CDF80C80434644464546CDF8C7
:106C1000108006927269079301213046C2F34F1A21
:106C2000FFF71AFA079B20B97378002B00F09080C9
:106C3000CDE70278E52A00D042B9002C08BFD04643
:106C4000BC423CBF0134E4B222B981E0BC4238BF4F
:106C5000002403E0E52A01D10025DBE72E2AFBD042
:106C6000C17A0F2952D13DB95106D3D5437B039345
:106C700002F01F052B4607E0013BDBB29A42EBD145
:106C8000427B03999142E7D15A1E4FF00D0C0CFB49
:106C900002FC029A6245DFD94FF0000EBEF1040FEC
:106CA0005FFA8EF204D800EB4E02B2F801200CE03D
:106CB0000A2A95BF0EF1FF320EF1010200EB4202EB
:106CC00000EB420294BFD28892880299614503D1B9
:106CD000002A18BF00259DE7FF2ABDD8D2B2A2F135
:106CE00041011929D9F8081011F80C1098BF203269
:106CF0000CF1010AA1F1410C98BFD2B2BCF1190FFD
:106D00009CBF2031C9B29142A6D1FBE00907A3D4B0
:106D10004DB1012B7FF45BAFFFF70BFD039B83426B
:106D20007FF455AF0FE00B220699079304F050FB58
:106D3000079B00287FF46EAF99F80020D20702D598
:106D40000122049266E71BF4006F00F0D1803EE759
:106D50001BF4007F3FF43BAF0BF00303013B012B1F
:106D60003FF635AF002C08BFD046BC4202D3049B8F
:106D7000CBB91FE000213046FFF76EF910B97378E8
:106D80005BB124E70134E4B2EFE7B3681B79012B70
:106D9000EDD81034E4B2A742E9D93046FFF718F82D
:106DA0000028F2D113E749463046FFF7AFFE00282E
:106DB0003FF40DAF4FEA48113046FFF76AF900285B
:106DC0003FF405AF7D1EEDB22C464FF0000A4FF0A8
:106DD0000F0841E000213046FFF73EF90746002842
:106DE0003FF4F5AEB26892F82430AC4243F00103B0
:106DF00082F824300CBF44F040022246027080F832
:106E00000B8080F80CA009F10D000392FFF791FCB4
:106E1000039A787387F81AA087F81BA002F01F0264
:106E20000D23013AD9F808E05A4300230299914210
:106E300015D91EF80210042B5FFA83FC03F1010040
:106E400013D807EB4303A3F801100D2802F1010248
:106E50000346EBD1013CE4B2002CBBD10EE014BFE1
:106E60004FF0FF31002189B2E5E7BCF10A0F94BF72
:106E700007EB430307EB40039980E6E7736921467C
:106E80003046C3F34F1AFFF7E7F8074600283FF4F0
:106E90009EAE2022214604F0B5FA4B4653F80D2F42
:106EA0003A605A687A601A893A819B7ABB7299F87B
:106EB000003003F018033B73184B1B682BB107F12C
:106EC0000E0107F11000984706E021233B742823A8
:106ED0007B740823BC73FB733B8A7B823B83FB89F7
:106EE000FB82B26892F8243043F0010382F8243028
:106EF00000955B46524631460598FFF713F909E0C5
:106F0000012777E60EF1010EBEF10D0F3FF482AEC0
:106F1000D446C3E609B0BDE8F08F00BF18E30320F4
:106F200000F00ABE00F008BEB0F5FA6F30B528BF19
:106F3000A0F5FA60104D28BF80B292B20023013351
:106F4000DCB2A14205D9EC1814F8014C224492B2EB
:106F5000F5E7022903D9830704BF013292B200EB9F
:106F6000C003C11C00EBC30000EB8000431E03EB19
:106F7000A100104480B230BD1BC90D00B1F5FA6FFD
:106F800083709DF80030C37028BFA1F5FA619DF8A9
:106F90000430037128BF89B29DF808300170427037
:106FA0004371704710B50446827841780078FFF746
:106FB000BBFFE278182303FB002023793C2202FB6D
:106FC0000030637902FB00330148184410BD00BF54
:106FD00080436D3808B502F0CDFE682101F0E5F977
:106FE00002F0C8FE036802219B68984702F0C2FEC7
:106FF00001F0E2F902F0BEFE0122682101F0C7F9BA
:1070000002F0B8FE03685B69984700F0E000E038E2
:1070100018BF012008BD38B50D4602F0ABFE68214F
:1070200001F0C3F902F0A6FE036803219B689847AC
:1070300002F0A0FE6B790A24B3FBF4F101EB4101ED
:1070400003EB41010368C9B29B68984702F092FEC6
:107050002B79B3FBF4F101EB410103EB4101036830
:10706000C9B29B68984702F085FEEB78B3FBF4F158
:1070700001EB410103EB41010368C9B29B689847EA
:1070800002F078FEAB78B3FBF4F101EB410103EBC6
:1070900041010368C9B29B68984702F06BFE036820
:1070A00000219B68984702F065FE6B78B3FBF4F112
:1070B00001EB410103EB41010368C9B29B689847AA
:1070C00002F058FE29780368B1FBF4F404EB4404A1
:1070D00001EB44019B68C9B2984702F04BFE01F0F6
:1070E0006BF902F047FE682101F05FF902F042FE01
:1070F000036802219B68984702F03CFE0368002168
:107100009B68984702F036FEBDE8384001F054B95C
:107110002DE9F843044602F02DFE682101F045F9FF
:1071200002F028FE036803219B68984702F022FEC4
:1071300001F042F902F01EFE0722682101F027F952
:1071400002F018FE03685B69984700F07F000511A4
:10715000A5EB850500EB4500C5B202F00BFE036808
:107160005B699847C0F30316A6EB860600EB460062
:10717000C6B202F0FFFD03685B699847C0F30317CE
:10718000A7EB870700EB4700C7B202F0F3FD0368E7
:107190005B699847C0F30318A8EB880800EB480028
:1071A0005FFA80F802F0E6FD03685B69984702F039
:1071B000E1FD03685B699847C0F30319A9EB8909EE
:1071C00000EB49005FFA80F902F0D4FD03685B69C7
:1071D0009847C0F30313A3EB830300EB4300207035
:1071E00084F8019084F80280E7702671657120466A
:1071F000BDE8F88308B502F0BDFD01F0B9F8012043
:1072000008BDFFF7F7BF00F097BCF8B50E4607467C
:1072100002F020F9054602F015F9044602F008F9DB
:107220006401C0B2ADB204F4FF54A5F2BC750443CE
:1072300044EA45243C8002F0DDF8054602F0E4F81B
:10724000044602F0EBF8ED02640105F4FF2504F4B6
:10725000FF542C43C0F3460004433480F8BD0000C3
:1072600030B585B01C4B009313798DF804309368CA
:107270000293137B8DF80C3000F58C65537B8DF8F1
:107280000D3004460A466B4600F26C412846FEF774
:1072900011FAF0B1256004F23C452846FFF726F8C4
:1072A00001212046FEF7F3FC014668B1214628463D
:1072B000FEF707FE68B194F83C3413F0700316BF74
:1072C000064B18461D6005E02046FEF7E0FC00284E
:1072D000ECD1002005B030BDC4C70D0014E303207D
:1072E00070B504460025456022731D481D4A206084
:1072F000A16022611A7922759A68A2611A7B2277AD
:107300005B7B6377184B2362184B63620A23A3628B
:1073100042F2107304F58E76E362012384F8303074
:107320006563A56384F8C83084F8C950C4F8CC30CC
:1073300084F8D05084F8D15084F8F45084F8F55093
:1073400010222946304604F05DF8C4F82C51C4F8E8
:107350002461C4F82861C4F83051204670BD00BFD4
:10736000C4C90D00C4C70D0027C90D0040420F005D
:1073700010B500F1BC040B46034A0C21204600F076
:1073800059FD204610BD00BF2CC90D00F8B5D0F83E
:107390002451044600F1D007D4F82C21A36A9A4264
:1073A00021D929692046FFF7E3FF064601F086F858
:1073B00033460D4A012102F0C1F831463846FEF746
:1073C000EBFF284602F00CFE04F58E7106462846B7
:1073D00002F07EFEFCF763FED4F82C31013BC4F8CA
:1073E0002C313546D8E7F8BD35C90D0070B50646D5
:1073F0000C464CB1E1683046FFF7F8FFA56820461F
:10740000FCF74DFE2C46F4E770BD000010B5054BAF
:10741000D0F820110360044600F58C70FFF7E6FFFA
:10742000204610BDC4C90D0010B50446FFF7EEFF9D
:1074300020464FF49A7102F090FD204610BD2DE9D0
:10744000F0470E4606F1040A896805461746544679
:10745000012359B13A680B699A42B4BF8A68CA6875
:107460000C46B4BF012300231146F2E733B1F368A1
:107470009C420ED0204602F0C6FD00E02046026984
:107480003B689A4205DB286000232B712846BDE843
:10749000F087A24508D03A6823699A42ACBF4FF002
:1074A00000094FF0010901E04FF001091420FCF739
:1074B000F4FD3B6810F1100F18BF0361804653467E
:1074C00001462246484602F0A0FD7369C5F80080D7
:1074D000013373610123D8E737B5D0F8CC100446E7
:1074E000FFF746FF40F20A23024604F1D00104F1FF
:1074F000F400FEF702FF054630B104F1CC0204F5BA
:107500008C716846FFF79BFF284603B030BD000032
:1075100030B5002380F8C83090F8C9309DB00446DB
:10752000E3B9494B494A007B1A60012102F0BCFCD7
:10753000474B0C93237D8DF83430A3690E93237F42
:107540008DF83C30217B637FA0688DF83D300CAA1C
:10755000FFF786FE84F8C90000286BD0226A32B398
:10756000A168002301F23C410CA88DF830308DF861
:107570003130FEF7C2FE0546C8B900F09FFF236A0E
:10758000344A012101F0DAFFA168226A8DF83050F7
:10759000012301F23C410CA88DF83150FEF78DFF1C
:1075A00028B900F08BFF2C4A012101F0C7FFA16828
:1075B000226A04F1D005002301F23C412846FEF77F
:1075C0009CFE88B300212846FEF763FD00238DF85A
:1075D0000C308DF80D300022294603A8FEF710FE6E
:1075E000D0B140220CA903A8FFF7C9F80CA803F0FA
:1075F000E1FD009060B16A4604F58C7101A8FFF7C7
:107600001EFF009BD4F8CC209A42B8BFC4F8CC30FF
:1076100003A8FEF76BFEDEE72046FFF7B7FE204625
:10762000FFF75AFF68B905E000F048FF0B4A012157
:1076300001F084FF012384F8C83000F005FAC4F893
:1076400030011DB030BD00BF18E303200B720D00E8
:10765000C4C70D0073C90D004EC90D005BC90D00F4
:1076600038B50446406B28B10368A26BDB6804F1AF
:107670003C01984794F8C8305BB1D4F83031002B06
:1076800053D000F0E1F9D4F83031C01AE36A9842DF
:107690004BD294F8C930002B44D094F8F430002B2E
:1076A00040D004F1F405A26B04F13C012846FEF73A
:1076B00055FF002821DD94F8303013B12846FEF73D
:1076C000DFFD626AD4F810319A422BD22846FEF7C9
:1076D0000DFED4F8CC300133C4F8CC3000F0EEFE0F
:1076E000D4F8CC30134A012101F028FF2046FFF7DF
:1076F000F3FE2046FFF74AFE14E000F0DFFE0E4ADC
:10770000012101F01BFF2846FEF7F0FD04F1D00037
:10771000FEF7ECFD012384F8C830002384F8C9305B
:10772000C4F830310023A36338BD2046FFF7F0FED4
:10773000AFE700BF88C90D00A3C90D0008B5836B72
:107740005A1C03447F2A826383F83C1001D80A291B
:1077500001D1FFF785FF012008BD00F0EDB9000061
:1077600008B5024B1B681B68019308BD4C0203005F
:1077700008B5024B1B685B68019308BD4C0203000F
:1077800008B5024B1B681B69019308BD4C0203003E
:1077900008B5024B1B685B69019308BD4C020300EE
:1077A00008B5024B1B689B69019308BD4C0203009E
:1077B00008B5024B1B68DB69019308BD4C0203004E
:1077C00008B5024B1B681B6A019308BD4C020300FD
:1077D00008B5024B1B68DB68019308BD2802030053
:1077E00008B5024B1B685B69019308BD28020300C2
:1077F00008B5024B1B689B69019308BD2802030072
:1078000008B5024B1B68DB69019308BD2802030021
:1078100008B5024B1B681B6A019308BD28020300D0
:1078200008B5024B1B685B6A019308BD2802030080
:1078300008B5024B1B689B6A019308BD2802030030
:1078400008B5024B1B68DB6A019308BD28020300E0
:1078500008B5024B1B681B6B019308BD280203008F
:1078600008B5024B1B685B6B019308BD280203003F
:1078700008B5024B1B681B6C019308BD280203006E
:1078800008B5024B1B689B6C019308BD28020300DE
:1078900008B5024B1B68DB6C019308BD280203008E
:1078A00008B5024B1B681B68019308BD3C0203002E
:1078B00008B5024B1B68DB68019308BD3C0203005E
:1078C00008B5024B1B681B69019308BD3C0203000D
:1078D00008B5024B1B685B69019308BD3C020300BD
:1078E00008B5024B1B689B69019308BD3C0203006D
:1078F00008B5024B1B68DB69019308BD3C0203001D
:1079000008B5024B1B681B6A019308BD3C020300CB
:1079100008B5024B1B689B6A019308BD3C0203003B
:1079200008B5024B1B685B69019308BD6402030044
:1079300008B5024B1B689B68019308BD4802030011
:1079400008B5024B1B681B69019308BD4802030080
:1079500008B5024B1B685B69019308BD4802030030
:1079600008B5024B1B681B6B019308BD480203005E
:1079700008B5024B1B689B6B019308BD48020300CE
:1079800008B5024B1B681B6C019308BD480203003D
:1079900008B5024B1B685B6C019308BD48020300ED
:1079A00008B5024B1B68DB6C019308BD480203005D
:1079B00008B5024B1B685B6D019308BD48020300CC
:1079C00008B5024B1B689B68019308BD7802030051
:1079D00008B5024B1B68DB68019308BD7802030001
:1079E00008B5034B1B68D3F89830019308BD00001D
:1079F0007802030008B5034B1B68D3F8F0300193FD
:107A000008BD00007802030008B5024B1B68DB6E5E
:107A1000019308BD3402030008B5024B1B685B6884
:107A2000019308BD1802030008B5024B1B68DB6810
:107A3000019308BD1802030008B5024B1B681B69BF
:107A4000019308BD1802030008B5024B1B685B696F
:107A5000019308BD1802030008B5024B1B68DB69DF
:107A6000019308BD1802030008B5024B1B681B6A8E
:107A7000019308BD1802030008B5024B1B689B6AFE
:107A8000019308BD1802030008B5024B1B685B6C2C
:107A9000019308BD1802030008B5024B1B689B6CDC
:107AA000019308BD1802030008B5024B1B689B6DCB
:107AB000019308BD1802030008B5024B1B681B6840
:107AC000019308BD3002030008B5024B1B685B69D7
:107AD000019308BD3002030008B5024B1B68DB6947
:107AE000019308BD3002030008B5024B1B681B6AF6
:107AF000019308BD3002030008B5024B1B685B6AA6
:107B0000019308BD3002030008B5024B1B689B6A55
:107B1000019308BD3002030008B5024B1B689B6B44
:107B2000019308BD3002030008B5024B1B68DB6BF4
:107B3000019308BD3002030008B5024B1B681B68A7
:107B4000019308BD2C02030008B5024B1B685B685B
:107B5000019308BD2C02030008B5024B1B689B680B
:107B6000019308BD2C02030008B5024B1B68DB68BB
:107B7000019308BD2C02030008B5024B1B681B696A
:107B8000019308BD2C02030008B5024B1B685B691A
:107B9000019308BD2C02030008B5024B1B689B69CA
:107BA000019308BD2C02030008B5024B1B68DB697A
:107BB000019308BD2C02030008B5024B1B681B6B28
:107BC000019308BD2C02030008B5024B1B689B689B
:107BD000019308BD6802030008B5024B1B68DB680F
:107BE000019308BD6802030008B5024B1B685B6B7C
:107BF000019308BD6002030008B5024B1B681B6DB2
:107C0000019308BD6002030008B5024B1B685B6D61
:107C1000019308BD6002030008B5024B1B681B6896
:107C2000019308BD4402030008B5024B1B685B6862
:107C3000019308BD4402030008B5024B1B689B6812
:107C4000019308BD4402030008B5024B1B685B6941
:107C5000019308BD4402030008B5024B1B681B6A70
:107C6000019308BD4402030008B5024B1B681B6B5F
:107C7000019308BD4402030008B5024B1B68DB6B8F
:107C8000019308BD4402030008B5024B1B685B6802
:107C9000019308BD4002030008B5024B1B689B68B6
:107CA000019308BD4002030008B5024B1B68DB6866
:107CB000019308BD4002030008B5024B1B681B6915
:107CC000019308BD4002030008B5024B1B685B69C5
:107CD000019308BD4002030008B5024B1B689B6975
:107CE000019308BD4002030008B5024B1B68DB6925
:107CF000019308BD4002030008B5024B1B681B6AD4
:107D0000019308BD4002030008B5024B1B681B6BC2
:107D1000019308BD4002030008B5024B1B685B6B72
:107D2000019308BD4002030008B5024B1B681B68A5
:107D3000019308BD2002030008B5024B1B685B6875
:107D4000019308BD2002030008B5024B1B685B6964
:107D5000019308BD2002030008B5024B1B68DB6CD1
:107D6000019308BD2002030008B5024B1B685B6D40
:107D7000019308BD2002030008B5024B1B689B6DF0
:107D8000019308BD2002030008B5024B1B68DB6DA0
:107D9000019308BD2002030008B5034B1B68D3F80C
:107DA0008830019308BD00002002030008B5034B92
:107DB0001B68D3F89430019308BD00002002030033
:107DC00008B5034B1B68D3F8A030019308BD000031
:107DD0002002030008B5024B1B681B68019308BD15
:107DE0001C02030008B5024B1B685B68019308BDC9
:107DF0001C02030008B5024B1B689B68019308BD79
:107E00001C02030008B5024B1B68DB68019308BD28
:107E10001C02030008B5024B1B681B69019308BDD7
:107E20001C02030008B5024B1B689B69019308BD47
:107E30001C02030008B5024B1B68DB69019308BDF7
:107E40001C02030008B5024B1B681B6A019308BDA6
:107E50001C02030008B5024B1B685B6A019308BD56
:107E60001C02030008B5024B1B68DB6A019308BDC6
:107E70001C02030008B5024B1B681B6B019308BD75
:107E80001C02030008B5024B1B68DB6B019308BDA5
:107E90001C02030000231A464068FFF7F5BE0022CB
:107EA00002214068FFF700BF002211464068FFF73B
:107EB000F3BE002211464068FFF7FEBE00231A46BB
:107EC00019464068FFF700BF00231A46194640686C
:107ED000FFF702BF002281F001014068FFF704BFF5
:107EE00000224068FFF710BF002211464068FFF7EC
:107EF00013BF002211464068FFF7FEBE2DE9F04394
:107F0000002495B016460D46074600F037FB214683
:107F100020220CA8009403F075FA40230C9321460C
:107F20006B460CAA3046FFF757FE0446002844D1A2
:107F3000024601216868FFF7BFFE02218046224603
:107F40006868FFF7B9FE009E81462146002E34D0B6
:107F5000002932D17368022B02D00A2B09D02AE003
:107F6000B8F1000F27D071693846043100F033FBB7
:107F700020E0B9F1000F1ED07469112201A803F0AE
:107F800041FA06238DF8143001AD04F108031834CA
:107F9000186859682A4603C20833A3421546F7D128
:107FA00001A906A807AD00F0F7FA0FCD3C1D0FC4DC
:107FB0002B6823700121F669C8E70098FFF704FEDB
:107FC000384615B0BDE8F083024B034A1A60002220
:107FD0005A6070471CE30320DCC90D0000221146E3
:107FE0004068FFF789BE002211464068FFF794BE43
:107FF00000224068FFF788BE002281F0010140683E
:10800000FFF772BE00231A4601214068FFF764BEE5
:1080100000231A4619464068FFF756BE0022114653
:108020004068FFF749BE002211464068FFF734BEA2
:10803000002202214068FFF737BE00231A4640683D
:10804000FFF722BE38B5054688B104684CB1A36875
:108050001BB103222146204698471021204601F0FB
:108060007CFF28461421BDE8384001F076BF38BDBA
:1080700010B103685B681847704710B50368044681
:10808000BBB15868FFF754FC78B923685A7C12B921
:108090005868FFF755FC23685868FFF759FC2068BB
:1080A0000023236028B1FFF7CDFF206808B1FFF758
:1080B000C9FF204610BD000038B50C4B03600446D4
:1080C000D0F8CC0108B1FBF7ECFFD4F8C45135B1BE
:1080D0002846FFF7D2FF0421284601F03EFFA068A2
:1080E00008B1FFF7C5FF204638BD00BF10CA0D001C
:1080F00038B50E4C0E4B23600025022304F5E470C6
:108100006360A560C4F8C451C4F8C851FFF740FCCF
:10811000084BC4F8CC5184F8D05123602046064A5D
:108120000649BDE8384001F013BF00BF24E3032037
:10813000DCC90D0010CA0D00C8DC0320B9800D0099
:10814000704710B51021044601F007FF204610BD0E
:1081500070B5084B0360044600250E4640F80C5FDE
:10816000FFF7FEFB30462671FFF7B6FCA560204600
:1081700070BD00BF44CA0D004FF6FF710079FFF7D4
:108180009BBCC068FFF7FCBB400830B518600024FA
:1081900018688842E5B206D90134082C02D040089C
:1081A0001860F5E70725024B5B5D137030BD00BF1B
:1081B0004CCA0D002DE9F04380468FB0C0680F46D1
:1081C000FFF7D6FB98F804401422002109A803F019
:1081D00019F90B232046002209A9ADF82430FFF736
:1081E0008BFC9DF82D404CB19DF82C502DB90C9E68
:1081F0009DF834909DF8354003E00024A1462646C2
:1082000001253B790DB1002B40D19D420BD1BA68BD
:10821000B24208D18DF820908DF82140BDF8201091
:10822000BA89914232D023BB8DF80F300DF10F0285
:1082300004ABB9680A98FFF7A7FF3B7905B113BBF8
:10824000AB4209D000213B7B01917C7B9DF80F2044
:1082500098F80400009413E0BB68B342F2D38DF8A1
:1082600020908DF82140BDF82020BB899A42E9D1A9
:1082700009E0002398F80400019300931A460121B5
:10828000FFF752FC02E0049BB342DBD100200FB0A9
:10829000BDE8F08308B50079FFF716FCC0B208BD51
:1082A00030B587B004460A9D00790095FFF72CFC95
:1082B0003DB902A92079FFF72FFC9DF81430DB07A8
:1082C000F7D407B030BD0079FFF70EBC10B5836856
:1082D00004460BB901F0D4FFC3689847A3681BB1EB
:1082E000032221462046984720461021BDE8104031
:1082F00001F033BE7047F8B5064615460C468F1898
:10830000BC4206D0336814F8011B9B68304698477E
:10831000F6E72846F8BD0022007CFFF779BA002175
:10832000007CFFF77DBA0021007CFFF781BA0021B5
:10833000007CFFF785BA0021007CFFF789BA10B5F1
:108340001421044601F009FE204610BD10B5044674
:108350004FF47A730846A3600021044B20746160D7
:108360002360FFF785FA204610BD00BF5CCA0D00F0
:1083700000231A461946007CFFF72ABA13B50024D9
:10838000007C0094FFF72CFAC0B202B010BD0123AC
:10839000D2B2C9B2FFF7F2BFDBB2D2B2C9B2FFF7B5
:1083A000EDBF0022007CFFF723BAC9B2FFF7F9BF87
:1083B0000022007CFFF724BA0121FFF7F9BF00215A
:1083C000007CFFF74DBA08B50021007CFFF758FA92
:1083D000B0FA80F0400908BD08B50021007CFFF725
:1083E00057FAB0FA80F0400908BD0B68036013B17A
:1083F0005A6801325A60704741747047704708B537
:108400000021007CFFF7CCF930EA200028BF4FF0B4
:10841000FF3008BD08B50121007CFFF7C1F930EA43
:10842000200028BF4FF0FF3008BD08B5007CFFF7E3
:10843000AFF920EAE07008BD08B5007CFFF7A0F9AD
:1084400020EAE07008BD007CFFF7BAB910B514212E
:10845000044601F082FD204610BD38B50446007C7C
:108460000D46FFF795F9002801DC607C28B129460C
:10847000207CFFF79DF920EAE07038BD10B5044676
:10848000002363604FF47A73A360054B23600123DC
:108490000846217463741146FFF762F9204610BD47
:1084A00084CA0D000022007CFFF762B910B51422C7
:1084B0000446002102F0A6FF204610BD30B50E4D47
:1084C00087B001A8FFF7F2FF296811F0010410D16D
:1084D0002846FBF7E8FD60B101AA21460748FFF7EF
:1084E000CDFF2846FBF7E4FD054A0649034801F0A5
:1084F0002FFD024807B030BDF8E40320FCE4032060
:10850000C8DC0320FD830D00704710B51821044618
:1085100001F023FD204610BDF0B5037D062B8DB084
:108520000E4600F104074FF0000402D000F10805E8
:1085300018E00CAD394605F8304D2F232A460A20A5
:10854000FFF7EEF9284603F0CFFC33680246DB68FC
:108550002946304698470FE024B12E21304600F0DE
:10856000AFFF044415F8011D0A22304600F0E4FF75
:10857000BD420444F0D120460DB0F0BD10B5054B0E
:108580000446112240F8043B002102F03BFF204644
:1085900010BD00BFB4CA0D000346074A10B543F82A
:1085A000042B01F1100251F8044B43F8044B9142A3
:1085B000F9D10A781A7010BDB4CA0D0010B59DF833
:1085C000084044EA032343EA024242EA01610423E9
:1085D0004160037510BD37B50D788B784A78C9783E
:1085E00000912946FFF7EAFF03B030BD7047002035
:1085F000704710B51021044601F0AFFC204610BDB5
:1086000008B508B1FFF7F5FF08BD10B5836804464B
:1086100013B1032201469847204610BD0022026094
:1086200010B54FF69C728280B1F9044084808A8034
:1086300002680C6804600A6010BD10B5044600684A
:10864000FFF7D0FB204610BD38B5C468F4B12378DD
:10865000022B03D104F10C00FFF7EFFF656835B181
:108660002846FFF7D2FF1021284601F076FCA568C6
:1086700035B12846FFF7C9FF1021284601F06DFCEF
:1086800020461421BDE8384001F067BC38BD10B564
:1086900088B00446684600F0FAFA694604A800F07B
:1086A00035FB04A8A047044604A800F0A9FA6846D0
:1086B00000F0A6FA204608B010BDF0B5102485B031
:1086C00007460E46154600212246684602F09AFEED
:1086D000002269461046ADF80040029703960195C6
:1086E000FFF7A2FA05B0F0BD13B5044691E8050006
:1086F00000234B600B602060626001A8019300932F
:10870000FCF72CFB204602B010BDF7B50C4602ADBD
:1087100054F8043B45F8083D06460F4601A821469B
:10872000FFF763FE29463046FFF7DEFF01A8FCF79E
:1087300015FB2046FCF712FB3846082101F00DFC22
:10874000304603B0F0BD13B50B46044603C88DE8B0
:10875000030093E8030084E803009DE8030083E836
:10876000030002B010BD000038B5002304460360CA
:1087700010200D46FBF791FC28B101234360836074
:10878000024B0360C5602060204638BDC8CA0D009A
:10879000826810B50AB901F073FDC368BDE81040E6
:1087A000184708B5006800F11001FFF7F1FF08BD98
:1087B000826810B50AB901F063FDC368BDE81040D6
:1087C000184708B5006800F11001FFF7F1FF08BD78
:1087D00038B5002383608B6804460D462BB1022216
:1087E0009847EB68E360AB68A360204638BD0000A3
:1087F000F0B589B004686846FFF710FF00238DF8D4
:1088000008304FF00202D4E84F3F002B03D1C4E8F8
:10881000412F0029F7D102D08DF8083063E014F120
:108820000C0503D069462846FFF7F8FEBFF35F8FBB
:1088300001236370002004F10803BFF35F8F53E846
:10884000006F43E80002002AF9D1BFF35F8F002ECA
:1088500049D0FFF781FA20B129463046FFF798FF4B
:108860003AE0314602A8FFF7B3FFE068B4F91050D0
:1088700008B102F009FE06901020ADF81C50FBF77D
:108880000CFC0546E8B1002787601820FBF705FCC3
:10889000044688B10146876002A8FFF754FF049B95
:1088A000A268A360059B049206A9E268E36004F154
:1088B00010000592FFF7B2FE0D4BEB600D4B2C60E4
:1088C000AB6006A8FFF7B9FE02A8FFF79EFE0022E4
:1088D00029460948FFF748FA3046FFF796FE10216F
:1088E000304601F03AFB6846FFF7A7FE09B0F0BD3D
:1088F000A3870D00198A0D00CD820D002DE9F04FE0
:108900008BB006460F46904699469DF850A0FFF75B
:108910009BF907AD834630BB4FF62E73059005A932
:108920002846ADF81830FFF779FE1420FBF7B5FBA9
:10893000044658B10223037001234370C0F804B009
:10894000C0F808B029460C30FFF768FE30462146D3
:1089500040F8044BFFF708FF2846FFF76EFE05A816
:10896000FFF76BFE52E000240C2314206C60AC6017
:108970000793FBF792FB014618B104704470446002
:10898000846004A80391FFF7EFFE224B08930820B0
:10899000FBF783FB044628B1039B40F8043B04A982
:1089A000FFF723FD00955FFA8AF34A4641463846B1
:1089B0000994FFF751F920B9039B5B7803F0FF029C
:1089C00083B1039B059304A906A8FFF70EFD05A933
:1089D0003046FFF789FE06A8FCF7C0F904A8FCF7AB
:1089E000BDF913E04FF69C7305A903A80592ADF8F5
:1089F0001830FFF7FDFE05A8FFF71FFE05A809992F
:108A0000FFF783FE06A8FCF7A9F9DAE730460BB0BA
:108A1000BDE8F08F898B0D00022AF8B5044606D018
:108A2000032A17D0012A22D10B6803601FE0182007
:108A30000E68FBF732FB054650B13146FFF7C8FE22
:108A40003069B6F9147008B102F01EFD2861AF82DA
:108A500025600CE0046854B104F11000FFF7EDFD4F
:108A60002046FFF7D2FD1821204601F076FA0020BB
:108A7000F8BD38B5002383608B6804460D462BB1E2
:108A800002229847EB68E360AB68A360204638BDDC
:108A9000022A70B5044606D0032A11D0012A18D143
:108AA0000B68036015E014200E68FBF7F6FA054624
:108AB00020B13146FFF7DDFF337C2B74256008E0E1
:108AC000046834B12046FFF7A0FD1421204601F0D0
:108AD00044FA002070BD0000F0B5002387B00C46BA
:108AE000BFF35F8F50E8006F40E80032002AF9D1F1
:108AF000BFF35F8F002E3FD01846FFF72DF90746D2
:108B000020B121463046FFF753FE2EE0314601A842
:108B1000FFF7AFFF23788DF814301020FBF7BDFA74
:108B20000546D0B187601420FBF7B7FA044678B148
:108B30008760014601A8FFF706FE039BA268A360B9
:108B4000049B0392E268E3609DF81430049223745E
:108B50000A4BEB600A4B2C60AB6001A8FFF755FD98
:108B6000002229460748FFF7FFF83046FFF74DFD82
:108B70001021304601F0F1F907B0F0BDC3870D00B8
:108B8000918A0D00CD820D0030B585B004460D46AA
:108B900068461146FFF7B9FD7CB124B228460DB1F5
:108BA00002F072FC029002A96846ADF80C40FFF793
:108BB0001FFE02A8FFF741FD1DE000988DF8084058
:108BC0004FF00102D0E84F3FA34203D1C0E8412F4C
:108BD0000029F7D102D08DF808300CE010F10C011B
:108BE0004FF0010318BF0373BFF35F8F043000F829
:108BF000033CFFF771FF01A8FCF7B0F805B030BDEA
:108C000010B504460068FFF7EDF8204610BD10B51A
:108C10000446006808B1FFF7E5F800232360A3606D
:108C2000636010BD38B504460D4600680131FFF79A
:108C3000E1F810B184E82100012038BD10B50368C7
:108C4000044613B143688B4207D22046FFF7EAFF80
:108C500020B1A3680BB922681370012010BD70B554
:108C60000E46114604461546FFF7E8FF18B92046A0
:108C7000FFF7CDFF09E02A463146A560206802F0E3
:108C8000B6FB2268A3680021D154204670BD38B5D8
:108C90000023044603604360836003730D4639B1CB
:108CA000084603F021F9294602462046FFF7D7FF80
:108CB000204638BD38B5054600680C4660B16A6884
:108CC0008B689A4206D3096802F0D6FBA368AB60B2
:108CD00000230AE0FFF786F823682B6063686B6067
:108CE000A368AB60002323606360A36038BD884243
:108CF00010B50B46044607D0096819B19A68FFF70A
:108D0000AEFF01E0FFF783FF204610BD10B5002342
:108D100004460360436083600373FFF7E8FF204667
:108D200010BD884210B5044601D0FFF7C3FF2046AE
:108D300010BD38B505460C4641B1084603F0D4F8DD
:108D4000214602462846FFF78AFF01E0FFF75FFF52
:108D5000284638BD08B582680B4612B919B90120FA
:108D600008BD11B90368187802E0006802F07AFBC8
:108D7000B0FA80F0400908BD10B5144683688A68CF
:108D80009B1AA3420AD3006858B1096841B1204434
:108D900003F0B2F8B0FA80F0400910BD002010BD19
:108DA000084610BD82688B689A4202D30022FFF702
:108DB000E3BF0020704700002DE9F0419A420E46C3
:108DC0001C46104988BF13461546074684BF2546F2
:108DD0001C46FFF75CFFB1688D420FD88C4228BF5C
:108DE0000C463368002213F804801A55316838465F
:108DF0002944FFF79EFF336803F804803846BDE836
:108E0000F08100BFDBCB0D008A4230B507D0039D57
:108E1000441AED1A6C43521A94FBF2F4E01830BD78
:108E20000021FEF791BF000008B50C4B33B1FFF7EE
:108E300045FB03681B699847002809DC084B63B1B0
:108E400000F0CCFE03681B699847002803DC08BDCE
:108E5000AFF30080F2E7AFF3008008BD0000000030
:108E60000000000008B5FFF7DFFFFEF7EDFD014B46
:108E7000186008BD04E6032007B5002300931A46D6
:108E80006FF07701FEF792FF03B05DF804FB00007E
:108E900007B543880A2B08D0502B09D1094B1B6812
:108EA0003BB103B05DF804EB1847FFF7E5FF06E0C0
:108EB000002300931A466FF07701FEF777FF03B0A7
:108EC0005DF804FB10E5032010B5FEF7A5FD044690
:108ED00002F0A0FA074B13B12046AFF30080002147
:108EE0000448FEF7C9FE00210348BDE81040FEF724
:108EF00053BF00BF00000000918E0D000068FFF717
:108F000062BA10B50446016002710AB1FFF7F6FFBC
:108F1000204610BD38B504460D4600F04BFF2A46EA
:108F200001462046FFF7EDFF204638BD0068FFF7F9
:108F300053BA10B5037904460BB1FFF7F7FF20468B
:108F400010BDF8B5044616461D460F46FFF7D6FF7E
:108F500020683621FFF729FA2068036839469B68A4
:108F6000984701212068FFF723FA022236210123C6
:108F70002068FFF711FA206803685B699847307032
:108F8000206803685B69984728702046BDE8F84070
:108F9000FFF7CCBF07B502AB002203F8012D8DF817
:108FA000062004210DF10602FFF7CBFF9DF8070014
:108FB00001F036FD0022094B01F098FD02F06EF839
:108FC0009DF8063000EE103A07EE900AB8EEC00A9F
:108FD00037EE800A03B05DF804FB00BF0000703F6D
:108FE000002211464068FEF767BE00221146406825
:108FF000FEF782BE002211464068FEF78DBE0022B9
:109000004068FEF781BE002281F001014068FEF752
:109010006BBE00231A4619464068FEF75DBE00236A
:109020001A4619464068FEF74FBE002211464068B6
:10903000FEF732BE002202214068FEF735BE002353
:109040001A464068FEF720BE38B5084C28252A4647
:109050000021204602F0D6F94FF0FF336360044B45
:10906000258004225A60034A1A6038BD1CE503209B
:1090700014E50320E4CA0D0010B50446FFF7C5FA55
:10908000204610BD0348044A04490023836000F0D1
:109090005FBF00BF44E50320C8DC032079900D00CA
:1090A00000470000F0B585B01C460E461746054641
:1090B000FEF77AFD002084424FF0040303908DF800
:1090C0000C30A5BF9DF828308DF80E30034603AB59
:1090D000009332463B460649A8BF8DF80D4028460E
:1090E000FEF75AFDB0FA80F0400905B0F0BD00BFB0
:1090F000A1900D00F0B5144B144F1E68144B06449C
:1091000018683B6806449E428BB01BD00AA801AD8C
:1091100040F8286D02F064F8436903F26C73436110
:1091200004460FCC0FC50FCC0FC5D4F800E0C5F82E
:1091300000E001AD0FCD074C0FC40FCD0FC43E6052
:10914000C4F800E00BB0F0BD88E5032084E50320FF
:1091500080E5032054E5032008B50020FEF784FDD8
:1091600028B1FEF771FD80F00100C0B208BD0120FA
:1091700008BD000008B5FFF7BDFF014B986808BDAA
:1091800054E5032008B5FFF7B5FF014B586808BD4B
:1091900054E5032008B5FFF7ADFF014B186808BD83
:1091A00054E5032008B5FFF7A5FF014BD86808BDBB
:1091B00054E5032008B5FFF79DFF024B1869013005
:1091C00008BD00BF54E5032008B5FFF793FF014B2E
:1091D000586908BD54E5032008B5FEF73DFC034B74
:1091E0001B681844024B1B68184408BD88E503201F
:1091F00080E50320FAEE087AB4EEE70AF1EE10FA01
:109200000FD4F2EE0C7AB4EEE70AF1EE10FA08DCB5
:10921000DFED047A044B20EE270ABDEEC00A83ED91
:10922000000A70470000614588E5032008B5FEF795
:109230001BFC002211461046BDE80840FEF7A4BD05
:1092400037B50E4B1B6819440D4B1B68044602A82A
:10925000194440F8041D01F0C3FF01F06FFF0546FB
:1092600002F042FE2844002300F8013C2946204633
:10927000FFF70DFD204603B030BD00BF88E5032099
:1092800080E503202DE9F047A4B014AC07468946D9
:10929000204611461D4602F0EFF8204602F024FE5B
:1092A000804625B9244903A802F0E6F813E03C21E2
:1092B00095FBF1F2002AB8BF524292FBF1F301FB99
:1092C000132200924FF461631C4A95FBF3F31021C3
:1092D00003A8FEF7AFFD25462E1B08F1FF3AB24565
:1092E0001BD92B78252B16D16B787A2B13D103A899
:1092F00002F0FAFD80463044C6EB0A02A91C204465
:1093000002F075F8424603A9284602F070F820469C
:1093100002F0EAFD80460135DEE74B462246322167
:1093200007A802F02DF907A93846FFF7B0FC384628
:1093300024B0BDE8F08700BFE9D20D0010CB0D00CE
:10934000F7B5054601921C4613B9124B1C682CB1A7
:10935000114B2046196802F085F820B9019928467A
:10936000FFF76EFF13E00D4F019A3B680C4E1A4455
:10937000336802A8134440F8043D01F031FF3A6815
:1093800033680146134428462246FFF77BFF2846F0
:1093900003B0F0BD7CE503200CDC032088E503204E
:1093A00080E5032010B50020FEF77EFB044668B977
:1093B000FEF7BAFC01280BD12046FEF7DDFC38B9D8
:1093C000FFF7CAFE30B9FEF737FCF9E7012010BD00
:1093D000002010BDFFF7C0FE0020FEF765FB003047
:1093E00018BF012010BD08B5FFF7DCFFBDE808403D
:1093F000FEF732BB08B5FFF7F6FFFFF77BFE014B28
:10940000986808BD54E5032008B5FFF7ECFFFFF7A7
:1094100071FE014B586808BD54E5032008B5FFF7FD
:10942000E2FFFFF767FE014B186808BD54E5032013
:1094300008B5FFF7D8FFFFF75DFE014BD86808BD00
:1094400054E5032008B5FFF7CEFFBDE80840FFF75D
:10945000B1BE000008B5FFF7C6FFFFF74BFE014B9A
:10946000586908BD54E50320024B1A68024B1A6084
:10947000704700BF0CDC03207CE50320014B024A4F
:109480001A6070478CE50320AACB0D00F8B506469C
:109490000D468F180024BD420CD0336815F8011B0F
:1094A0009B6830469847002801DB0444F3E7002C12
:1094B00008BF04462046F8BD08B5FCF76DFC08BDA2
:1094C00003689B68184738B50D210546FFF7F8FF7C
:1094D0000A2104462846FFF7F3FF204438BD30B583
:1094E0008BB00B4600218DF82410012A98BF0A2268
:1094F0000DF12304B3FBF2F505FB123303F0FF0378
:10950000092B94BF30333733DBB2214604F80139DD
:109510002B46002DEED1FCF73FFC0BB030BD10B454
:109520002AB903685DF8044B9B68C9B21847D2B2E8
:109530005DF8044BFFF7D3BFFFF7F1BF0CB42DE983
:10954000F04387B000AF07F13804054654F8049B98
:109550003C600E4623464A461421381DFEF77AFC2D
:10956000132805D8391D2846FCF716FC044613E0DD
:1095700000F1080323F00703E846ADEB030D411C9F
:1095800023464A4668463C60FEF764FC6946284626
:10959000FCF702FC0446C5461EB12846FFF793FFC0
:1095A000044420461C37BD46BDE8F04302B0704776
:1095B00070470020704710B51421044600F0CDFC20
:1095C000204610BDFAF76BBD08B50A20024A0021FB
:1095D000FEF70AFB08BD00BF297A0D0010B5002375
:1095E0000370044B04461868FEF7DAF90123237070
:1095F000204610BD98E5032010B5037804461BB142
:10960000024B1868FEF7D4F9204610BD98E50320F8
:1096100008B582798B799A4206D1062201F0D8FEEC
:10962000B0FA80F0400908BD002008BD10B583697C
:10963000C26903EBC2029342184606D0046824882C
:109640008C4203F10803F6D110BD002010BD10B507
:109650000A6852F8023F03605368436010BD1FB5AB
:1096600002680B6812881B889A420C460CD101468E
:109670006846FFF7ECFF214602A8FFF7E8FF02A9C2
:109680006846FFF7C5FF00B9002004B010BD000018
:1096900010B504463420FAF700FD014668B10023F6
:1096A000036043608360C360036143618361C3619E
:1096B000036243628362C3620363216019B90A4A89
:1096C0000A20FEF791FA0020FEF77AF920B1064A47
:1096D00000210A20FEF788FA002221680348FEF7DD
:1096E00089F9204610BD00BF297A0D00CD990D00E3
:1096F00010B50A4C2368DB070ED42046FAF7D3FCDA
:1097000050B10748FFF7C4FF2046FAF7D1FC054ADD
:109710000549034800F01CFC014810BD94E50320F6
:1097200090E50320C8DC032093970D0070B5046812
:109730004368054604EBC306A64204D0201DFBF790
:109740000DFB0834F8E72868FEF74CFB284670BD8F
:1097500070B504684368054604EBC306A64204D00E
:10976000201DFBF7FBFA0834F8E72868FEF73AFB00
:10977000284670BD10B5046904F11800FFF7E8FF32
:1097800004F10C00FFF7D2FF2046BDE81040FAF7C5
:1097900086BCF8B504680746C4B1A569E36905EB62
:1097A000C306AE4204D0281DFBF7D8FA0835F8E707
:1097B000A069FEF717FB04F10C00FFF7C9FF204674
:1097C000FFF7B4FF3421204600F0C7FB3846F8BD50
:1097D00073B500250560456006462420FAF75DFC58
:1097E000044678B103464FF6FF7223F8022BC0F807
:1097F00002505D608572C572C56005614561856115
:10980000C5610562002314200193FAF746FC034664
:1098100028B1012242608260084A0260046102A805
:10982000726840F8042D73603460FBF797FA336870
:109830000BB9FFF7C9FE304602B070BD20CC0D0059
:1098400070B504684368054604EBC306A64204D01D
:10985000201DFBF783FA0834F8E700236B6070BD26
:1098600037B5054601A8FFF7B9FE0020FEF7B0F8AE
:10987000002805DB28681830FFF7E2FF002400E02D
:10988000044601A8FFF7B8FE204603B030BD884269
:1098900070B515461AD9904219D2A1F10806511A8D
:1098A0000439151F44182B1F9E4225D0042C07D0C5
:1098B00055F8043C44F8043C29462046FEF795FD43
:1098C0002846FBF74BFA083D083CECE714D00C1D8A
:1098D000061D231F9D420FD0042E07D054F8043CD0
:1098E00046F8043C21463046FEF77FFD2046FBF754
:1098F00035FA08340836ECE770BD2DE9F04104680C
:1099000043680546884604EBC307A74218D0414682
:109910002046FFF7A4FE064608B90834F5E78CB1E7
:10992000201DFBF71BFA2B686A6804F1080103EBA2
:10993000C2022046FFF7ABFF6B68013B6B6002E0A1
:10994000002600E026463046BDE8F081F7B5044623
:1099500051F8043B4768009301A8FEF746FD66688E
:10996000A3689E4214DB0136002E0BDDF000FEF7EB
:1099700031FA054618B394E8060001EBC202FFF77E
:1099800086FF00E000252068FEF72CFA2560A6601F
:109990002668626806EBC70506EBC202294605F198
:1099A0000800FFF774FF35B1009B46F8373001A976
:1099B000281DFEF71AFD636801336360012501A8C5
:1099C000FBF7CCF9284603B0F0BD00002DE9F041CB
:1099D00004468EB003A80D46FFF700FE2368032B54
:1099E00002D0042B42D087E004A8FFF7F1FE049BCD
:1099F00022891A806268049952F8083FC1F802303F
:109A00005368C1F8063007A8049B069305A9FEF722
:109A1000ECFC06A905F11800FFF798FF044607A81B
:109A2000FBF79CF92023069374B9364B009306AAE2
:109A30002346354907943220FEF7DEF8049B214681
:109A40001888FDF7CDFF0DE0304A0092002306AAEA
:109A50002D4907930120FEF7CFF86B6A13B1E96A2D
:109A600004A8984705A8FBF779F945E0218928461D
:109A7000FFF7DCFD074600283ED00468A369E169D2
:109A80004FF6FF72228003EBC101994203D053F8D5
:109A9000080B4280F9E7E668236906EBC308B04586
:109AA00004D0301DFBF75AF90836F8E7002323618C
:109AB000A669E36906EBC308B04504D0301DFBF787
:109AC0004DF90836F8E70023E361A372E372AB6A4D
:109AD00013B1296B3846984720230D4A069300920C
